{
  "_format": "hh-sol-artifact-1",
  "contractName": "Witness",
  "sourceName": "contracts/Witness.sol",
  "abi": [
    {
      "anonymous": false,
      "inputs": [
        {
          "indexed": true,
          "internalType": "uint256",
          "name": "id",
          "type": "uint256"
        },
        {
          "indexed": true,
          "internalType": "address",
          "name": "agent",
          "type": "address"
        },
        {
          "indexed": true,
          "internalType": "address",
          "name": "flaggedBy",
          "type": "address"
        }
      ],
      "name": "ReceiptFlagged",
      "type": "event"
    },
    {
      "anonymous": false,
      "inputs": [
        {
          "indexed": true,
          "internalType": "uint256",
          "name": "id",
          "type": "uint256"
        },
        {
          "indexed": true,
          "internalType": "address",
          "name": "agent",
          "type": "address"
        },
        {
          "indexed": false,
          "internalType": "bytes32",
          "name": "contentHash",
          "type": "bytes32"
        },
        {
          "indexed": false,
          "internalType": "uint256",
          "name": "timestamp",
          "type": "uint256"
        },
        {
          "indexed": false,
          "internalType": "string",
          "name": "taskLabel",
          "type": "string"
        }
      ],
      "name": "ReceiptLogged",
      "type": "event"
    },
    {
      "inputs": [
        {
          "internalType": "uint256",
          "name": "_id",
          "type": "uint256"
        }
      ],
      "name": "flagReceipt",
      "outputs": [],
      "stateMutability": "nonpayable",
      "type": "function"
    },
    {
      "inputs": [
        {
          "internalType": "address",
          "name": "",
          "type": "address"
        }
      ],
      "name": "flaggedCount",
      "outputs": [
        {
          "internalType": "uint256",
          "name": "",
          "type": "uint256"
        }
      ],
      "stateMutability": "view",
      "type": "function"
    },
    {
      "inputs": [
        {
          "internalType": "address",
          "name": "_agent",
          "type": "address"
        }
      ],
      "name": "getReceiptsByAgent",
      "outputs": [
        {
          "internalType": "uint256[]",
          "name": "",
          "type": "uint256[]"
        }
      ],
      "stateMutability": "view",
      "type": "function"
    },
    {
      "inputs": [
        {
          "internalType": "bytes32",
          "name": "_contentHash",
          "type": "bytes32"
        },
        {
          "internalType": "string",
          "name": "_taskLabel",
          "type": "string"
        }
      ],
      "name": "logReceipt",
      "outputs": [
        {
          "internalType": "uint256",
          "name": "",
          "type": "uint256"
        }
      ],
      "stateMutability": "nonpayable",
      "type": "function"
    },
    {
      "inputs": [],
      "name": "receiptCount",
      "outputs": [
        {
          "internalType": "uint256",
          "name": "",
          "type": "uint256"
        }
      ],
      "stateMutability": "view",
      "type": "function"
    },
    {
      "inputs": [
        {
          "internalType": "uint256",
          "name": "",
          "type": "uint256"
        }
      ],
      "name": "receipts",
      "outputs": [
        {
          "internalType": "bytes32",
          "name": "contentHash",
          "type": "bytes32"
        },
        {
          "internalType": "address",
          "name": "agent",
          "type": "address"
        },
        {
          "internalType": "uint256",
          "name": "timestamp",
          "type": "uint256"
        },
        {
          "internalType": "string",
          "name": "taskLabel",
          "type": "string"
        }
      ],
      "stateMutability": "view",
      "type": "function"
    },
    {
      "inputs": [
        {
          "internalType": "address",
          "name": "",
          "type": "address"
        },
        {
          "internalType": "uint256",
          "name": "",
          "type": "uint256"
        }
      ],
      "name": "receiptsByAgent",
      "outputs": [
        {
          "internalType": "uint256",
          "name": "",
          "type": "uint256"
        }
      ],
      "stateMutability": "view",
      "type": "function"
    },
    {
      "inputs": [
        {
          "internalType": "address",
          "name": "_agent",
          "type": "address"
        }
      ],
      "name": "trustScore",
      "outputs": [
        {
          "internalType": "uint256",
          "name": "",
          "type": "uint256"
        }
      ],
      "stateMutability": "view",
      "type": "function"
    },
    {
      "inputs": [
        {
          "internalType": "uint256",
          "name": "_id",
          "type": "uint256"
        },
        {
          "internalType": "bytes32",
          "name": "_contentHash",
          "type": "bytes32"
        }
      ],
      "name": "verifyReceipt",
      "outputs": [
        {
          "internalType": "bool",
          "name": "",
          "type": "bool"
        }
      ],
      "stateMutability": "view",
      "type": "function"
    }
  ],
  "bytecode": "0x608060405234801561001057600080fd5b506109ec806100206000396000f3fe608060405234801561001057600080fd5b50600436106100935760003560e01c80632f504d7a116100665780632f504d7a1461012157806334982ace14610144578063534a8465146101575780636ec502321461016a5780637f038f3c1461017f57600080fd5b806302400cee146100985780630e9acc64146100be5780630f7ee1ec146100de5780632ca8543414610101575b600080fd5b6100ab6100a63660046105cd565b610188565b6040519081526020015b60405180910390f35b6100d16100cc366004610665565b6102d0565b6040516100b59190610687565b6100f16100ec3660046106cb565b61033c565b6040516100b594939291906106e4565b6100ab61010f366004610665565b60036020526000908152604090205481565b61013461012f366004610751565b6103f9565b60405190151581526020016100b5565b6100ab610152366004610773565b610463565b6100ab610165366004610665565b610494565b61017d6101783660046106cb565b61050f565b005b6100ab60015481565b60008060015490506040518060800160405280868152602001336001600160a01b0316815260200142815260200185858080601f0160208091040260200160405190810160405280939291908181526020018383808284376000920182905250939094525050838152602081815260409182902084518155908401516001820180546001600160a01b0319166001600160a01b0390921691909117905590830151600282015560608301519091506003820190610245908261083e565b50503360009081526002602090815260408220805460018181018355918452918320909101849055805492509061027b83610914565b9190505550336001600160a01b0316817f57d2e3c0c863877d4c3bba9907994f9520132264bfc6710709ef3025d9870736874288886040516102c0949392919061092d565b60405180910390a3949350505050565b6001600160a01b03811660009081526002602090815260409182902080548351818402810184019094528084526060939283018282801561033057602002820191906000526020600020905b81548152602001906001019080831161031c575b50505050509050919050565b600060208190529081526040902080546001820154600283015460038401805493946001600160a01b0390931693919291610376906107b3565b80601f01602080910402602001604051908101604052809291908181526020018280546103a2906107b3565b80156103ef5780601f106103c4576101008083540402835291602001916103ef565b820191906000526020600020905b8154815290600101906020018083116103d257829003601f168201915b5050505050905084565b6000600154831061044a5760405162461bcd60e51b8152602060048201526016602482015275149958d95a5c1d08191bd95cc81b9bdd08195e1a5cdd60521b60448201526064015b60405180910390fd5b5060008281526020819052604090205481145b92915050565b6002602052816000526040600020818154811061047f57600080fd5b90600052602060002001600091509150505481565b6001600160a01b0381166000908152600260205260408120548082036104bd5750606492915050565b6001600160a01b0383166000908152600360205260409020548181106104e7575060009392505050565b816104f2828261096a565b6104fd90606461097d565b6105079190610994565b949350505050565b60015481106105595760405162461bcd60e51b8152602060048201526016602482015275149958d95a5c1d08191bd95cc81b9bdd08195e1a5cdd60521b6044820152606401610441565b600081815260208181526040808320600101546001600160a01b0316808452600390925282208054919261058c83610914565b909155505060405133906001600160a01b0383169084907fd780b205bdaafc3682266ac888967863992cf717555c96a95d913ddfcf4c48f690600090a45050565b6000806000604084860312156105e257600080fd5b83359250602084013567ffffffffffffffff8082111561060157600080fd5b818601915086601f83011261061557600080fd5b81358181111561062457600080fd5b87602082850101111561063657600080fd5b6020830194508093505050509250925092565b80356001600160a01b038116811461066057600080fd5b919050565b60006020828403121561067757600080fd5b61068082610649565b9392505050565b6020808252825182820181905260009190848201906040850190845b818110156106bf578351835292840192918401916001016106a3565b50909695505050505050565b6000602082840312156106dd57600080fd5b5035919050565b8481526000602060018060a01b038616602084015284604084015260806060840152835180608085015260005b8181101561072d5785810183015185820160a001528201610711565b50600060a0828601015260a0601f19601f8301168501019250505095945050505050565b6000806040838503121561076457600080fd5b50508035926020909101359150565b6000806040838503121561078657600080fd5b61078f83610649565b946020939093013593505050565b634e487b7160e01b600052604160045260246000fd5b600181811c908216806107c757607f821691505b6020821081036107e757634e487b7160e01b600052602260045260246000fd5b50919050565b601f821115610839576000816000526020600020601f850160051c810160208610156108165750805b601f850160051c820191505b8181101561083557828155600101610822565b5050505b505050565b815167ffffffffffffffff8111156108585761085861079d565b61086c8161086684546107b3565b846107ed565b602080601f8311600181146108a157600084156108895750858301515b600019600386901b1c1916600185901b178555610835565b600085815260208120601f198616915b828110156108d0578886015182559484019460019091019084016108b1565b50858210156108ee5787850151600019600388901b60f8161c191681555b5050505050600190811b01905550565b634e487b7160e01b600052601160045260246000fd5b600060018201610926576109266108fe565b5060010190565b84815283602082015260606040820152816060820152818360808301376000818301608090810191909152601f909201601f191601019392505050565b8181038181111561045d5761045d6108fe565b808202811582820484141761045d5761045d6108fe565b6000826109b157634e487b7160e01b600052601260045260246000fd5b50049056fea26469706673582212205cd37b9a7d77f241e7ee90245ed6eee6afc11f249d14979fe14cfa6a8b560c1864736f6c63430008180033",
  "linkReferences": {},
  "deployedLinkReferences": {}
}